{
  "_format": "hh-sol-artifact-1",
  "contractName": "TokenStore",
  "sourceName": "contracts/TokenStore.sol",
  "abi": [
    {
      "inputs": [
        {
          "internalType": "address",
          "name": "_usdtTokenAddress",
          "type": "address"
        },
        {
          "internalType": "address",
          "name": "_gameTokenAddress",
          "type": "address"
        },
        {
          "internalType": "uint256",
          "name": "_gtPerUsdt",
          "type": "uint256"
        }
      ],
      "stateMutability": "nonpayable",
      "type": "constructor"
    },
    {
      "inputs": [],
      "name": "ReentrancyGuardReentrantCall",
      "type": "error"
    },
    {
      "inputs": [
        {
          "internalType": "address",
          "name": "token",
          "type": "address"
        }
      ],
      "name": "SafeERC20FailedOperation",
      "type": "error"
    },
    {
      "anonymous": false,
      "inputs": [
        {
          "indexed": true,
          "internalType": "address",
          "name": "buyer",
          "type": "address"
        },
        {
          "indexed": false,
          "internalType": "uint256",
          "name": "usdtAmount",
          "type": "uint256"
        },
        {
          "indexed": false,
          "internalType": "uint256",
          "name": "gtOut",
          "type": "uint256"
        }
      ],
      "name": "Purchase",
      "type": "event"
    },
    {
      "inputs": [
        {
          "internalType": "uint256",
          "name": "usdtAmount",
          "type": "uint256"
        }
      ],
      "name": "buy",
      "outputs": [],
      "stateMutability": "nonpayable",
      "type": "function"
    },
    {
      "inputs": [],
      "name": "gameToken",
      "outputs": [
        {
          "internalType": "contract GameToken",
          "name": "",
          "type": "address"
        }
      ],
      "stateMutability": "view",
      "type": "function"
    },
    {
      "inputs": [],
      "name": "gtPerUsdt",
      "outputs": [
        {
          "internalType": "uint256",
          "name": "",
          "type": "uint256"
        }
      ],
      "stateMutability": "view",
      "type": "function"
    },
    {
      "inputs": [],
      "name": "usdtToken",
      "outputs": [
        {
          "internalType": "contract IERC20",
          "name": "",
          "type": "address"
        }
      ],
      "stateMutability": "view",
      "type": "function"
    },
    {
      "inputs": [
        {
          "internalType": "address",
          "name": "to",
          "type": "address"
        },
        {
          "internalType": "uint256",
          "name": "amount",
          "type": "uint256"
        }
      ],
      "name": "withdrawUSDT",
      "outputs": [],
      "stateMutability": "nonpayable",
      "type": "function"
    }
  ],
  "bytecode": "0x608060405234801561001057600080fd5b50604051610d31380380610d3183398181016040528101906100329190610312565b6001600081905550600073ffffffffffffffffffffffffffffffffffffffff168373ffffffffffffffffffffffffffffffffffffffff16036100a9576040517f08c379a00000000000000000000000000000000000000000000000000000000081526004016100a0906103c2565b60405180910390fd5b600073ffffffffffffffffffffffffffffffffffffffff168273ffffffffffffffffffffffffffffffffffffffff1603610118576040517f08c379a000000000000000000000000000000000000000000000000000000000815260040161010f9061042e565b60405180910390fd5b6000811161015b576040517f08c379a0000000000000000000000000000000000000000000000000000000008152600401610152906104c0565b60405180910390fd5b82600160006101000a81548173ffffffffffffffffffffffffffffffffffffffff021916908373ffffffffffffffffffffffffffffffffffffffff16021790555081600260006101000a81548173ffffffffffffffffffffffffffffffffffffffff021916908373ffffffffffffffffffffffffffffffffffffffff16021790555080600381905550600260009054906101000a900473ffffffffffffffffffffffffffffffffffffffff1673ffffffffffffffffffffffffffffffffffffffff1663afa86ea2306040518263ffffffff1660e01b815260040161023f91906104ef565b600060405180830381600087803b15801561025957600080fd5b505af115801561026d573d6000803e3d6000fd5b5050505050505061050a565b600080fd5b600073ffffffffffffffffffffffffffffffffffffffff82169050919050565b60006102a98261027e565b9050919050565b6102b98161029e565b81146102c457600080fd5b50565b6000815190506102d6816102b0565b92915050565b6000819050919050565b6102ef816102dc565b81146102fa57600080fd5b50565b60008151905061030c816102e6565b92915050565b60008060006060848603121561032b5761032a610279565b5b6000610339868287016102c7565b935050602061034a868287016102c7565b925050604061035b868287016102fd565b9150509250925092565b600082825260208201905092915050565b7f496e76616c6964205553445420746f6b656e2061646472657373000000000000600082015250565b60006103ac601a83610365565b91506103b782610376565b602082019050919050565b600060208201905081810360008301526103db8161039f565b9050919050565b7f496e76616c69642047616d65546f6b656e206164647265737300000000000000600082015250565b6000610418601983610365565b9150610423826103e2565b602082019050919050565b600060208201905081810360008301526104478161040b565b9050919050565b7f436f6e76657273696f6e2072617465206d75737420626520677265617465722060008201527f7468616e207a65726f0000000000000000000000000000000000000000000000602082015250565b60006104aa602983610365565b91506104b58261044e565b604082019050919050565b600060208201905081810360008301526104d98161049d565b9050919050565b6104e98161029e565b82525050565b600060208201905061050460008301846104e0565b92915050565b610818806105196000396000f3fe608060405234801561001057600080fd5b50600436106100575760003560e01c80631481794e1461005c578063a98ad46c14610078578063c3dfdae614610096578063d96a094a146100b4578063f5243bfd146100d0575b600080fd5b61007660048036038101906100719190610571565b6100ee565b005b61008061013f565b60405161008d9190610610565b60405180910390f35b61009e610165565b6040516100ab919061064c565b60405180910390f35b6100ce60048036038101906100c99190610667565b61018b565b005b6100d86102df565b6040516100e591906106a3565b60405180910390f35b61013b8282600160009054906101000a900473ffffffffffffffffffffffffffffffffffffffff1673ffffffffffffffffffffffffffffffffffffffff166102e59092919063ffffffff16565b5050565b600160009054906101000a900473ffffffffffffffffffffffffffffffffffffffff1681565b600260009054906101000a900473ffffffffffffffffffffffffffffffffffffffff1681565b610193610364565b6101e2333083600160009054906101000a900473ffffffffffffffffffffffffffffffffffffffff1673ffffffffffffffffffffffffffffffffffffffff166103aa909392919063ffffffff16565b6000600354826101f291906106ed565b9050600260009054906101000a900473ffffffffffffffffffffffffffffffffffffffff1673ffffffffffffffffffffffffffffffffffffffff166340c10f1933836040518363ffffffff1660e01b815260040161025192919061073e565b600060405180830381600087803b15801561026b57600080fd5b505af115801561027f573d6000803e3d6000fd5b505050503373ffffffffffffffffffffffffffffffffffffffff167f12cb4648cf3058b17ceeb33e579f8b0bc269fe0843f3900b8e24b6c54871703c83836040516102cb929190610767565b60405180910390a2506102dc61042c565b50565b60035481565b61035f838473ffffffffffffffffffffffffffffffffffffffff1663a9059cbb858560405160240161031892919061073e565b604051602081830303815290604052915060e01b6020820180517bffffffffffffffffffffffffffffffffffffffffffffffffffffffff8381831617835250505050610436565b505050565b6002600054036103a0576040517f3ee5aeb500000000000000000000000000000000000000000000000000000000815260040160405180910390fd5b6002600081905550565b610426848573ffffffffffffffffffffffffffffffffffffffff166323b872dd8686866040516024016103df93929190610790565b604051602081830303815290604052915060e01b6020820180517bffffffffffffffffffffffffffffffffffffffffffffffffffffffff8381831617835250505050610436565b50505050565b6001600081905550565b600080602060008451602086016000885af180610459576040513d6000823e3d81fd5b3d925060005191505060008214610474576001811415610490565b60008473ffffffffffffffffffffffffffffffffffffffff163b145b156104d257836040517f5274afe70000000000000000000000000000000000000000000000000000000081526004016104c991906107c7565b60405180910390fd5b50505050565b600080fd5b600073ffffffffffffffffffffffffffffffffffffffff82169050919050565b6000610508826104dd565b9050919050565b610518816104fd565b811461052357600080fd5b50565b6000813590506105358161050f565b92915050565b6000819050919050565b61054e8161053b565b811461055957600080fd5b50565b60008135905061056b81610545565b92915050565b60008060408385031215610588576105876104d8565b5b600061059685828601610526565b92505060206105a78582860161055c565b9150509250929050565b6000819050919050565b60006105d66105d16105cc846104dd565b6105b1565b6104dd565b9050919050565b60006105e8826105bb565b9050919050565b60006105fa826105dd565b9050919050565b61060a816105ef565b82525050565b60006020820190506106256000830184610601565b92915050565b6000610636826105dd565b9050919050565b6106468161062b565b82525050565b6000602082019050610661600083018461063d565b92915050565b60006020828403121561067d5761067c6104d8565b5b600061068b8482850161055c565b91505092915050565b61069d8161053b565b82525050565b60006020820190506106b86000830184610694565b92915050565b7f4e487b7100000000000000000000000000000000000000000000000000000000600052601160045260246000fd5b60006106f88261053b565b91506107038361053b565b92508282026107118161053b565b91508282048414831517610728576107276106be565b5b5092915050565b610738816104fd565b82525050565b6000604082019050610753600083018561072f565b6107606020830184610694565b9392505050565b600060408201905061077c6000830185610694565b6107896020830184610694565b9392505050565b60006060820190506107a5600083018661072f565b6107b2602083018561072f565b6107bf6040830184610694565b949350505050565b60006020820190506107dc600083018461072f565b9291505056fea2646970667358221220337ace76733903bf5ef7a93ede4ef5cf178dbb9a8e2362a1d30740927c71b65b64736f6c634300081c0033",
  "linkReferences": {},
  "deployedLinkReferences": {}
}