{
  "_format": "hh-sol-artifact-1",
  "contractName": "PlayGame",
  "sourceName": "contracts/PlayGame.sol",
  "abi": [
    {
      "inputs": [
        {
          "internalType": "address",
          "name": "_gameTokenAddress",
          "type": "address"
        },
        {
          "internalType": "address",
          "name": "_backendOperatorAddress",
          "type": "address"
        }
      ],
      "stateMutability": "nonpayable",
      "type": "constructor"
    },
    {
      "inputs": [
        {
          "internalType": "address",
          "name": "owner",
          "type": "address"
        }
      ],
      "name": "OwnableInvalidOwner",
      "type": "error"
    },
    {
      "inputs": [
        {
          "internalType": "address",
          "name": "account",
          "type": "address"
        }
      ],
      "name": "OwnableUnauthorizedAccount",
      "type": "error"
    },
    {
      "inputs": [],
      "name": "ReentrancyGuardReentrantCall",
      "type": "error"
    },
    {
      "anonymous": false,
      "inputs": [
        {
          "indexed": true,
          "internalType": "bytes32",
          "name": "matchId",
          "type": "bytes32"
        },
        {
          "indexed": false,
          "internalType": "address",
          "name": "player1",
          "type": "address"
        },
        {
          "indexed": false,
          "internalType": "address",
          "name": "player2",
          "type": "address"
        },
        {
          "indexed": false,
          "internalType": "uint256",
          "name": "stakeAmount",
          "type": "uint256"
        }
      ],
      "name": "MatchCreated",
      "type": "event"
    },
    {
      "anonymous": false,
      "inputs": [
        {
          "indexed": true,
          "internalType": "address",
          "name": "previousOwner",
          "type": "address"
        },
        {
          "indexed": true,
          "internalType": "address",
          "name": "newOwner",
          "type": "address"
        }
      ],
      "name": "OwnershipTransferred",
      "type": "event"
    },
    {
      "anonymous": false,
      "inputs": [
        {
          "indexed": true,
          "internalType": "bytes32",
          "name": "matchId",
          "type": "bytes32"
        }
      ],
      "name": "Refunded",
      "type": "event"
    },
    {
      "anonymous": false,
      "inputs": [
        {
          "indexed": true,
          "internalType": "bytes32",
          "name": "matchId",
          "type": "bytes32"
        },
        {
          "indexed": false,
          "internalType": "address",
          "name": "winner",
          "type": "address"
        }
      ],
      "name": "Settled",
      "type": "event"
    },
    {
      "anonymous": false,
      "inputs": [
        {
          "indexed": true,
          "internalType": "bytes32",
          "name": "matchId",
          "type": "bytes32"
        },
        {
          "indexed": false,
          "internalType": "address",
          "name": "staker",
          "type": "address"
        }
      ],
      "name": "Staked",
      "type": "event"
    },
    {
      "inputs": [],
      "name": "TIMEOUT_DURATION",
      "outputs": [
        {
          "internalType": "uint256",
          "name": "",
          "type": "uint256"
        }
      ],
      "stateMutability": "view",
      "type": "function"
    },
    {
      "inputs": [],
      "name": "backendOperatorAddress",
      "outputs": [
        {
          "internalType": "address",
          "name": "",
          "type": "address"
        }
      ],
      "stateMutability": "view",
      "type": "function"
    },
    {
      "inputs": [
        {
          "internalType": "bytes32",
          "name": "matchId",
          "type": "bytes32"
        },
        {
          "internalType": "address",
          "name": "winner",
          "type": "address"
        }
      ],
      "name": "commitResult",
      "outputs": [],
      "stateMutability": "nonpayable",
      "type": "function"
    },
    {
      "inputs": [
        {
          "internalType": "bytes32",
          "name": "matchId",
          "type": "bytes32"
        },
        {
          "internalType": "address",
          "name": "p1",
          "type": "address"
        },
        {
          "internalType": "address",
          "name": "p2",
          "type": "address"
        },
        {
          "internalType": "uint256",
          "name": "stakeAmount",
          "type": "uint256"
        }
      ],
      "name": "createMatch",
      "outputs": [],
      "stateMutability": "nonpayable",
      "type": "function"
    },
    {
      "inputs": [],
      "name": "gameToken",
      "outputs": [
        {
          "internalType": "contract IERC20",
          "name": "",
          "type": "address"
        }
      ],
      "stateMutability": "view",
      "type": "function"
    },
    {
      "inputs": [
        {
          "internalType": "bytes32",
          "name": "",
          "type": "bytes32"
        }
      ],
      "name": "matches",
      "outputs": [
        {
          "internalType": "address",
          "name": "player1",
          "type": "address"
        },
        {
          "internalType": "address",
          "name": "player2",
          "type": "address"
        },
        {
          "internalType": "uint256",
          "name": "stakeAmount",
          "type": "uint256"
        },
        {
          "internalType": "enum PlayGame.MatchStatus",
          "name": "status",
          "type": "uint8"
        },
        {
          "internalType": "uint256",
          "name": "startTime",
          "type": "uint256"
        },
        {
          "internalType": "address",
          "name": "winner",
          "type": "address"
        }
      ],
      "stateMutability": "view",
      "type": "function"
    },
    {
      "inputs": [],
      "name": "owner",
      "outputs": [
        {
          "internalType": "address",
          "name": "",
          "type": "address"
        }
      ],
      "stateMutability": "view",
      "type": "function"
    },
    {
      "inputs": [
        {
          "internalType": "bytes32",
          "name": "matchId",
          "type": "bytes32"
        }
      ],
      "name": "refund",
      "outputs": [],
      "stateMutability": "nonpayable",
      "type": "function"
    },
    {
      "inputs": [],
      "name": "renounceOwnership",
      "outputs": [],
      "stateMutability": "nonpayable",
      "type": "function"
    },
    {
      "inputs": [
        {
          "internalType": "bytes32",
          "name": "matchId",
          "type": "bytes32"
        }
      ],
      "name": "stake",
      "outputs": [],
      "stateMutability": "nonpayable",
      "type": "function"
    },
    {
      "inputs": [
        {
          "internalType": "address",
          "name": "newOwner",
          "type": "address"
        }
      ],
      "name": "transferOwnership",
      "outputs": [],
      "stateMutability": "nonpayable",
      "type": "function"
    }
  ],
  "bytecode": "0x608060405234801561001057600080fd5b5060405161248f38038061248f8339818101604052810190610032919061034a565b33600073ffffffffffffffffffffffffffffffffffffffff168173ffffffffffffffffffffffffffffffffffffffff16036100a55760006040517f1e4fbdf700000000000000000000000000000000000000000000000000000000815260040161009c9190610399565b60405180910390fd5b6100b48161022360201b60201c565b5060018081905550600073ffffffffffffffffffffffffffffffffffffffff168273ffffffffffffffffffffffffffffffffffffffff160361012b576040517f08c379a000000000000000000000000000000000000000000000000000000000815260040161012290610411565b60405180910390fd5b600073ffffffffffffffffffffffffffffffffffffffff168173ffffffffffffffffffffffffffffffffffffffff160361019a576040517f08c379a00000000000000000000000000000000000000000000000000000000081526004016101919061047d565b60405180910390fd5b81600360006101000a81548173ffffffffffffffffffffffffffffffffffffffff021916908373ffffffffffffffffffffffffffffffffffffffff16021790555080600460006101000a81548173ffffffffffffffffffffffffffffffffffffffff021916908373ffffffffffffffffffffffffffffffffffffffff160217905550505061049d565b60008060009054906101000a900473ffffffffffffffffffffffffffffffffffffffff169050816000806101000a81548173ffffffffffffffffffffffffffffffffffffffff021916908373ffffffffffffffffffffffffffffffffffffffff1602179055508173ffffffffffffffffffffffffffffffffffffffff168173ffffffffffffffffffffffffffffffffffffffff167f8be0079c531659141344cd1fd0a4f28419497f9722a3daafe3b4186f6b6457e060405160405180910390a35050565b600080fd5b600073ffffffffffffffffffffffffffffffffffffffff82169050919050565b6000610317826102ec565b9050919050565b6103278161030c565b811461033257600080fd5b50565b6000815190506103448161031e565b92915050565b60008060408385031215610361576103606102e7565b5b600061036f85828601610335565b925050602061038085828601610335565b9150509250929050565b6103938161030c565b82525050565b60006020820190506103ae600083018461038a565b92915050565b600082825260208201905092915050565b7f496e76616c69642047616d65546f6b656e206164647265737300000000000000600082015250565b60006103fb6019836103b4565b9150610406826103c5565b602082019050919050565b6000602082019050818103600083015261042a816103ee565b9050919050565b7f496e76616c6964206261636b656e64206f70657261746f722061646472657373600082015250565b60006104676020836103b4565b915061047282610431565b602082019050919050565b600060208201905081810360008301526104968161045a565b9050919050565b611fe3806104ac6000396000f3fe608060405234801561001057600080fd5b50600436106100a95760003560e01c80638da5cb5b116100715780638da5cb5b1461012a5780639fe9ada314610148578063c0d64a871461017d578063c3dfdae614610199578063eaf7ac9f146101b7578063f2fde38b146101d5576100a9565b8063270ab7f5146100ae5780633acb3700146100ca578063715018a6146100e65780637249fbb6146100f057806382770e7e1461010c575b600080fd5b6100c860048036038101906100c3919061156b565b6101f1565b005b6100e460048036038101906100df91906115e1565b6106a9565b005b6100ee610aa4565b005b61010a60048036038101906101059190611648565b610ab8565b005b610114610d9b565b6040516101219190611684565b60405180910390f35b610132610dc1565b60405161013f9190611684565b60405180910390f35b610162600480360381019061015d9190611648565b610dea565b60405161017496959493929190611725565b60405180910390f35b61019760048036038101906101929190611648565b610e93565b005b6101a161127d565b6040516101ae91906117e5565b60405180910390f35b6101bf6112a3565b6040516101cc9190611800565b60405180910390f35b6101ef60048036038101906101ea919061181b565b6112aa565b005b6101f9611330565b600460009054906101000a900473ffffffffffffffffffffffffffffffffffffffff1673ffffffffffffffffffffffffffffffffffffffff163373ffffffffffffffffffffffffffffffffffffffff1614610289576040517f08c379a0000000000000000000000000000000000000000000000000000000008152600401610280906118cb565b60405180910390fd5b6000600260008481526020019081526020016000209050600160028111156102b4576102b36116ae565b5b8160030160009054906101000a900460ff1660028111156102d8576102d76116ae565b5b14610318576040517f08c379a000000000000000000000000000000000000000000000000000000000815260040161030f90611937565b60405180910390fd5b8060000160009054906101000a900473ffffffffffffffffffffffffffffffffffffffff1673ffffffffffffffffffffffffffffffffffffffff168273ffffffffffffffffffffffffffffffffffffffff1614806103c557508060010160009054906101000a900473ffffffffffffffffffffffffffffffffffffffff1673ffffffffffffffffffffffffffffffffffffffff168273ffffffffffffffffffffffffffffffffffffffff16145b610404576040517f08c379a00000000000000000000000000000000000000000000000000000000081526004016103fb906119c9565b60405180910390fd5b600073ffffffffffffffffffffffffffffffffffffffff168160050160009054906101000a900473ffffffffffffffffffffffffffffffffffffffff1673ffffffffffffffffffffffffffffffffffffffff1614610497576040517f08c379a000000000000000000000000000000000000000000000000000000000815260040161048e90611a35565b60405180910390fd5b818160050160006101000a81548173ffffffffffffffffffffffffffffffffffffffff021916908373ffffffffffffffffffffffffffffffffffffffff16021790555060008160000160009054906101000a900473ffffffffffffffffffffffffffffffffffffffff1673ffffffffffffffffffffffffffffffffffffffff168373ffffffffffffffffffffffffffffffffffffffff161461055d578160000160009054906101000a900473ffffffffffffffffffffffffffffffffffffffff16610583565b8160010160009054906101000a900473ffffffffffffffffffffffffffffffffffffffff165b9050600360009054906101000a900473ffffffffffffffffffffffffffffffffffffffff1673ffffffffffffffffffffffffffffffffffffffff1663a9059cbb84600285600201546105d59190611a84565b6040518363ffffffff1660e01b81526004016105f2929190611ac6565b6020604051808303816000875af1158015610611573d6000803e3d6000fd5b505050506040513d601f19601f820116820180604052508101906106359190611b27565b5060028260030160006101000a81548160ff0219169083600281111561065e5761065d6116ae565b5b0217905550837fa569bfd2e3bd9bd14cfdabad61aef5f3d5b18b0fcdf78805e65349dda2210fbc846040516106939190611684565b60405180910390a250506106a5611376565b5050565b6106b161137f565b600073ffffffffffffffffffffffffffffffffffffffff166002600086815260200190815260200160002060000160009054906101000a900473ffffffffffffffffffffffffffffffffffffffff1673ffffffffffffffffffffffffffffffffffffffff1614610756576040517f08c379a000000000000000000000000000000000000000000000000000000000815260040161074d90611ba0565b60405180910390fd5b600073ffffffffffffffffffffffffffffffffffffffff168373ffffffffffffffffffffffffffffffffffffffff16141580156107c05750600073ffffffffffffffffffffffffffffffffffffffff168273ffffffffffffffffffffffffffffffffffffffff1614155b6107ff576040517f08c379a00000000000000000000000000000000000000000000000000000000081526004016107f690611c0c565b60405180910390fd5b8173ffffffffffffffffffffffffffffffffffffffff168373ffffffffffffffffffffffffffffffffffffffff160361086d576040517f08c379a000000000000000000000000000000000000000000000000000000000815260040161086490611c78565b60405180910390fd5b600081116108b0576040517f08c379a00000000000000000000000000000000000000000000000000000000081526004016108a790611d0a565b60405180910390fd5b6040518060c001604052808473ffffffffffffffffffffffffffffffffffffffff1681526020018373ffffffffffffffffffffffffffffffffffffffff1681526020018281526020016000600281111561090d5761090c6116ae565b5b8152602001428152602001600073ffffffffffffffffffffffffffffffffffffffff168152506002600086815260200190815260200160002060008201518160000160006101000a81548173ffffffffffffffffffffffffffffffffffffffff021916908373ffffffffffffffffffffffffffffffffffffffff16021790555060208201518160010160006101000a81548173ffffffffffffffffffffffffffffffffffffffff021916908373ffffffffffffffffffffffffffffffffffffffff1602179055506040820151816002015560608201518160030160006101000a81548160ff02191690836002811115610a0957610a086116ae565b5b02179055506080820151816004015560a08201518160050160006101000a81548173ffffffffffffffffffffffffffffffffffffffff021916908373ffffffffffffffffffffffffffffffffffffffff160217905550905050837f4becde1621d018f3c4630cadb81bbd72061cd951ebaab5e8b10d5b2fecfa49ce848484604051610a9693929190611d2a565b60405180910390a250505050565b610aac61137f565b610ab66000611406565b565b610ac0611330565b600060026000838152602001908152602001600020905060016002811115610aeb57610aea6116ae565b5b8160030160009054906101000a900460ff166002811115610b0f57610b0e6116ae565b5b14610b4f576040517f08c379a0000000000000000000000000000000000000000000000000000000008152600401610b4690611937565b60405180910390fd5b620151808160040154610b629190611d61565b4211610ba3576040517f08c379a0000000000000000000000000000000000000000000000000000000008152600401610b9a90611de1565b60405180910390fd5b600360009054906101000a900473ffffffffffffffffffffffffffffffffffffffff1673ffffffffffffffffffffffffffffffffffffffff1663a9059cbb8260000160009054906101000a900473ffffffffffffffffffffffffffffffffffffffff1683600201546040518363ffffffff1660e01b8152600401610c28929190611ac6565b6020604051808303816000875af1158015610c47573d6000803e3d6000fd5b505050506040513d601f19601f82011682018060405250810190610c6b9190611b27565b50600360009054906101000a900473ffffffffffffffffffffffffffffffffffffffff1673ffffffffffffffffffffffffffffffffffffffff1663a9059cbb8260010160009054906101000a900473ffffffffffffffffffffffffffffffffffffffff1683600201546040518363ffffffff1660e01b8152600401610cf1929190611ac6565b6020604051808303816000875af1158015610d10573d6000803e3d6000fd5b505050506040513d601f19601f82011682018060405250810190610d349190611b27565b5060028160030160006101000a81548160ff02191690836002811115610d5d57610d5c6116ae565b5b0217905550817ffe509803c09416b28ff3d8f690c8b0c61462a892c46d5430c8fb20abe472daf060405160405180910390a250610d98611376565b50565b600460009054906101000a900473ffffffffffffffffffffffffffffffffffffffff1681565b60008060009054906101000a900473ffffffffffffffffffffffffffffffffffffffff16905090565b60026020528060005260406000206000915090508060000160009054906101000a900473ffffffffffffffffffffffffffffffffffffffff16908060010160009054906101000a900473ffffffffffffffffffffffffffffffffffffffff16908060020154908060030160009054906101000a900460ff16908060040154908060050160009054906101000a900473ffffffffffffffffffffffffffffffffffffffff16905086565b610e9b611330565b6000600260008381526020019081526020016000209050600073ffffffffffffffffffffffffffffffffffffffff168160000160009054906101000a900473ffffffffffffffffffffffffffffffffffffffff1673ffffffffffffffffffffffffffffffffffffffff1603610f45576040517f08c379a0000000000000000000000000000000000000000000000000000000008152600401610f3c90611e4d565b60405180910390fd5b60006002811115610f5957610f586116ae565b5b8160030160009054906101000a900460ff166002811115610f7d57610f7c6116ae565b5b14610fbd576040517f08c379a0000000000000000000000000000000000000000000000000000000008152600401610fb490611edf565b60405180910390fd5b8060000160009054906101000a900473ffffffffffffffffffffffffffffffffffffffff1673ffffffffffffffffffffffffffffffffffffffff163373ffffffffffffffffffffffffffffffffffffffff16148061106a57508060010160009054906101000a900473ffffffffffffffffffffffffffffffffffffffff1673ffffffffffffffffffffffffffffffffffffffff163373ffffffffffffffffffffffffffffffffffffffff16145b6110a9576040517f08c379a00000000000000000000000000000000000000000000000000000000081526004016110a090611f4b565b60405180910390fd5b600360009054906101000a900473ffffffffffffffffffffffffffffffffffffffff1673ffffffffffffffffffffffffffffffffffffffff166323b872dd333084600201546040518463ffffffff1660e01b815260040161110c93929190611d2a565b6020604051808303816000875af115801561112b573d6000803e3d6000fd5b505050506040513d601f19601f8201168201806040525081019061114f9190611b27565b50600281600201546111619190611a84565b600360009054906101000a900473ffffffffffffffffffffffffffffffffffffffff1673ffffffffffffffffffffffffffffffffffffffff166370a08231306040518263ffffffff1660e01b81526004016111bc9190611684565b602060405180830381865afa1580156111d9573d6000803e3d6000fd5b505050506040513d601f19601f820116820180604052508101906111fd9190611f80565b036112395760018160030160006101000a81548160ff0219169083600281111561122a576112296116ae565b5b02179055504281600401819055505b817f33569fabfdaac29b9fcc05f7e8d37b389e8b2ba4379fcefefb7a8883d860b45a336040516112699190611684565b60405180910390a25061127a611376565b50565b600360009054906101000a900473ffffffffffffffffffffffffffffffffffffffff1681565b6201518081565b6112b261137f565b600073ffffffffffffffffffffffffffffffffffffffff168173ffffffffffffffffffffffffffffffffffffffff16036113245760006040517f1e4fbdf700000000000000000000000000000000000000000000000000000000815260040161131b9190611684565b60405180910390fd5b61132d81611406565b50565b60026001540361136c576040517f3ee5aeb500000000000000000000000000000000000000000000000000000000815260040160405180910390fd5b6002600181905550565b60018081905550565b6113876114ca565b73ffffffffffffffffffffffffffffffffffffffff166113a5610dc1565b73ffffffffffffffffffffffffffffffffffffffff1614611404576113c86114ca565b6040517f118cdaa70000000000000000000000000000000000000000000000000000000081526004016113fb9190611684565b60405180910390fd5b565b60008060009054906101000a900473ffffffffffffffffffffffffffffffffffffffff169050816000806101000a81548173ffffffffffffffffffffffffffffffffffffffff021916908373ffffffffffffffffffffffffffffffffffffffff1602179055508173ffffffffffffffffffffffffffffffffffffffff168173ffffffffffffffffffffffffffffffffffffffff167f8be0079c531659141344cd1fd0a4f28419497f9722a3daafe3b4186f6b6457e060405160405180910390a35050565b600033905090565b600080fd5b6000819050919050565b6114ea816114d7565b81146114f557600080fd5b50565b600081359050611507816114e1565b92915050565b600073ffffffffffffffffffffffffffffffffffffffff82169050919050565b60006115388261150d565b9050919050565b6115488161152d565b811461155357600080fd5b50565b6000813590506115658161153f565b92915050565b60008060408385031215611582576115816114d2565b5b6000611590858286016114f8565b92505060206115a185828601611556565b9150509250929050565b6000819050919050565b6115be816115ab565b81146115c957600080fd5b50565b6000813590506115db816115b5565b92915050565b600080600080608085870312156115fb576115fa6114d2565b5b6000611609878288016114f8565b945050602061161a87828801611556565b935050604061162b87828801611556565b925050606061163c878288016115cc565b91505092959194509250565b60006020828403121561165e5761165d6114d2565b5b600061166c848285016114f8565b91505092915050565b61167e8161152d565b82525050565b60006020820190506116996000830184611675565b92915050565b6116a8816115ab565b82525050565b7f4e487b7100000000000000000000000000000000000000000000000000000000600052602160045260246000fd5b600381106116ee576116ed6116ae565b5b50565b60008190506116ff826116dd565b919050565b600061170f826116f1565b9050919050565b61171f81611704565b82525050565b600060c08201905061173a6000830189611675565b6117476020830188611675565b611754604083018761169f565b6117616060830186611716565b61176e608083018561169f565b61177b60a0830184611675565b979650505050505050565b6000819050919050565b60006117ab6117a66117a18461150d565b611786565b61150d565b9050919050565b60006117bd82611790565b9050919050565b60006117cf826117b2565b9050919050565b6117df816117c4565b82525050565b60006020820190506117fa60008301846117d6565b92915050565b6000602082019050611815600083018461169f565b92915050565b600060208284031215611831576118306114d2565b5b600061183f84828501611556565b91505092915050565b600082825260208201905092915050565b7f4f6e6c7920746865206261636b656e64206f70657261746f722063616e20636f60008201527f6d6d697420726573756c74730000000000000000000000000000000000000000602082015250565b60006118b5602c83611848565b91506118c082611859565b604082019050919050565b600060208201905081810360008301526118e4816118a8565b9050919050565b7f4d61746368206973206e6f7420696e20746865207374616b6564207374617465600082015250565b6000611921602083611848565b915061192c826118eb565b602082019050919050565b6000602082019050818103600083015261195081611914565b9050919050565b7f57696e6e6572206d757374206265206f6e65206f662074686520706c6179657260008201527f7300000000000000000000000000000000000000000000000000000000000000602082015250565b60006119b3602183611848565b91506119be82611957565b604082019050919050565b600060208201905081810360008301526119e2816119a6565b9050919050565b7f526573756c7420616c726561647920636f6d6d69747465640000000000000000600082015250565b6000611a1f601883611848565b9150611a2a826119e9565b602082019050919050565b60006020820190508181036000830152611a4e81611a12565b9050919050565b7f4e487b7100000000000000000000000000000000000000000000000000000000600052601160045260246000fd5b6000611a8f826115ab565b9150611a9a836115ab565b9250828202611aa8816115ab565b91508282048414831517611abf57611abe611a55565b5b5092915050565b6000604082019050611adb6000830185611675565b611ae8602083018461169f565b9392505050565b60008115159050919050565b611b0481611aef565b8114611b0f57600080fd5b50565b600081519050611b2181611afb565b92915050565b600060208284031215611b3d57611b3c6114d2565b5b6000611b4b84828501611b12565b91505092915050565b7f4d6174636820616c726561647920657869737473000000000000000000000000600082015250565b6000611b8a601483611848565b9150611b9582611b54565b602082019050919050565b60006020820190508181036000830152611bb981611b7d565b9050919050565b7f496e76616c696420706c61796572206164647265737365730000000000000000600082015250565b6000611bf6601883611848565b9150611c0182611bc0565b602082019050919050565b60006020820190508181036000830152611c2581611be9565b9050919050565b7f506c61796572732063616e6e6f74206265207468652073616d65000000000000600082015250565b6000611c62601a83611848565b9150611c6d82611c2c565b602082019050919050565b60006020820190508181036000830152611c9181611c55565b9050919050565b7f5374616b6520616d6f756e74206d75737420626520677265617465722074686160008201527f6e207a65726f0000000000000000000000000000000000000000000000000000602082015250565b6000611cf4602683611848565b9150611cff82611c98565b604082019050919050565b60006020820190508181036000830152611d2381611ce7565b9050919050565b6000606082019050611d3f6000830186611675565b611d4c6020830185611675565b611d59604083018461169f565b949350505050565b6000611d6c826115ab565b9150611d77836115ab565b9250828201905080821115611d8f57611d8e611a55565b5b92915050565b7f54696d656f757420706572696f6420686173206e6f7420706173736564000000600082015250565b6000611dcb601d83611848565b9150611dd682611d95565b602082019050919050565b60006020820190508181036000830152611dfa81611dbe565b9050919050565b7f4d6174636820646f6573206e6f74206578697374000000000000000000000000600082015250565b6000611e37601483611848565b9150611e4282611e01565b602082019050919050565b60006020820190508181036000830152611e6681611e2a565b9050919050565b7f4d61746368206973206e6f7420696e207468652063726561746564207374617460008201527f6500000000000000000000000000000000000000000000000000000000000000602082015250565b6000611ec9602183611848565b9150611ed482611e6d565b604082019050919050565b60006020820190508181036000830152611ef881611ebc565b9050919050565b7f4f6e6c7920706c61796572732063616e207374616b6500000000000000000000600082015250565b6000611f35601683611848565b9150611f4082611eff565b602082019050919050565b60006020820190508181036000830152611f6481611f28565b9050919050565b600081519050611f7a816115b5565b92915050565b600060208284031215611f9657611f956114d2565b5b6000611fa484828501611f6b565b9150509291505056fea2646970667358221220cd9739987b1c891fb38699fdbedd4c29ade46ae887280decc9c0181e5c2b7eac64736f6c634300081c0033",
  "linkReferences": {},
  "deployedLinkReferences": {}
}