{
  "_format": "hh-sol-artifact-1",
  "contractName": "PlayGame",
  "sourceName": "contracts/PlayGame.sol",
  "abi": [
    {
      "inputs": [
        {
          "internalType": "address",
          "name": "_gameTokenAddress",
          "type": "address"
        },
        {
          "internalType": "address",
          "name": "_backendOperatorAddress",
          "type": "address"
        }
      ],
      "stateMutability": "nonpayable",
      "type": "constructor"
    },
    {
      "inputs": [
        {
          "internalType": "address",
          "name": "owner",
          "type": "address"
        }
      ],
      "name": "OwnableInvalidOwner",
      "type": "error"
    },
    {
      "inputs": [
        {
          "internalType": "address",
          "name": "account",
          "type": "address"
        }
      ],
      "name": "OwnableUnauthorizedAccount",
      "type": "error"
    },
    {
      "inputs": [],
      "name": "ReentrancyGuardReentrantCall",
      "type": "error"
    },
    {
      "anonymous": false,
      "inputs": [
        {
          "indexed": true,
          "internalType": "bytes32",
          "name": "matchId",
          "type": "bytes32"
        },
        {
          "indexed": false,
          "internalType": "address",
          "name": "player1",
          "type": "address"
        },
        {
          "indexed": false,
          "internalType": "address",
          "name": "player2",
          "type": "address"
        },
        {
          "indexed": false,
          "internalType": "uint256",
          "name": "stakeAmount",
          "type": "uint256"
        }
      ],
      "name": "MatchCreated",
      "type": "event"
    },
    {
      "anonymous": false,
      "inputs": [
        {
          "indexed": true,
          "internalType": "address",
          "name": "previousOwner",
          "type": "address"
        },
        {
          "indexed": true,
          "internalType": "address",
          "name": "newOwner",
          "type": "address"
        }
      ],
      "name": "OwnershipTransferred",
      "type": "event"
    },
    {
      "anonymous": false,
      "inputs": [
        {
          "indexed": true,
          "internalType": "bytes32",
          "name": "matchId",
          "type": "bytes32"
        }
      ],
      "name": "Refunded",
      "type": "event"
    },
    {
      "anonymous": false,
      "inputs": [
        {
          "indexed": true,
          "internalType": "bytes32",
          "name": "matchId",
          "type": "bytes32"
        },
        {
          "indexed": false,
          "internalType": "address",
          "name": "winner",
          "type": "address"
        }
      ],
      "name": "Settled",
      "type": "event"
    },
    {
      "anonymous": false,
      "inputs": [
        {
          "indexed": true,
          "internalType": "bytes32",
          "name": "matchId",
          "type": "bytes32"
        },
        {
          "indexed": false,
          "internalType": "address",
          "name": "staker",
          "type": "address"
        }
      ],
      "name": "Staked",
      "type": "event"
    },
    {
      "inputs": [],
      "name": "TIMEOUT_DURATION",
      "outputs": [
        {
          "internalType": "uint256",
          "name": "",
          "type": "uint256"
        }
      ],
      "stateMutability": "view",
      "type": "function"
    },
    {
      "inputs": [],
      "name": "backendOperatorAddress",
      "outputs": [
        {
          "internalType": "address",
          "name": "",
          "type": "address"
        }
      ],
      "stateMutability": "view",
      "type": "function"
    },
    {
      "inputs": [
        {
          "internalType": "bytes32",
          "name": "matchId",
          "type": "bytes32"
        },
        {
          "internalType": "address",
          "name": "winner",
          "type": "address"
        }
      ],
      "name": "commitResult",
      "outputs": [],
      "stateMutability": "nonpayable",
      "type": "function"
    },
    {
      "inputs": [
        {
          "internalType": "bytes32",
          "name": "matchId",
          "type": "bytes32"
        },
        {
          "internalType": "address",
          "name": "p1",
          "type": "address"
        },
        {
          "internalType": "address",
          "name": "p2",
          "type": "address"
        },
        {
          "internalType": "uint256",
          "name": "stakeAmount",
          "type": "uint256"
        }
      ],
      "name": "createMatch",
      "outputs": [],
      "stateMutability": "nonpayable",
      "type": "function"
    },
    {
      "inputs": [],
      "name": "gameToken",
      "outputs": [
        {
          "internalType": "contract IERC20",
          "name": "",
          "type": "address"
        }
      ],
      "stateMutability": "view",
      "type": "function"
    },
    {
      "inputs": [
        {
          "internalType": "bytes32",
          "name": "",
          "type": "bytes32"
        }
      ],
      "name": "matches",
      "outputs": [
        {
          "internalType": "address",
          "name": "player1",
          "type": "address"
        },
        {
          "internalType": "address",
          "name": "player2",
          "type": "address"
        },
        {
          "internalType": "uint256",
          "name": "stakeAmount",
          "type": "uint256"
        },
        {
          "internalType": "enum PlayGame.MatchStatus",
          "name": "status",
          "type": "uint8"
        },
        {
          "internalType": "uint256",
          "name": "startTime",
          "type": "uint256"
        },
        {
          "internalType": "address",
          "name": "winner",
          "type": "address"
        }
      ],
      "stateMutability": "view",
      "type": "function"
    },
    {
      "inputs": [],
      "name": "owner",
      "outputs": [
        {
          "internalType": "address",
          "name": "",
          "type": "address"
        }
      ],
      "stateMutability": "view",
      "type": "function"
    },
    {
      "inputs": [
        {
          "internalType": "bytes32",
          "name": "matchId",
          "type": "bytes32"
        }
      ],
      "name": "refund",
      "outputs": [],
      "stateMutability": "nonpayable",
      "type": "function"
    },
    {
      "inputs": [],
      "name": "renounceOwnership",
      "outputs": [],
      "stateMutability": "nonpayable",
      "type": "function"
    },
    {
      "inputs": [
        {
          "internalType": "bytes32",
          "name": "matchId",
          "type": "bytes32"
        }
      ],
      "name": "stake",
      "outputs": [],
      "stateMutability": "nonpayable",
      "type": "function"
    },
    {
      "inputs": [
        {
          "internalType": "address",
          "name": "newOwner",
          "type": "address"
        }
      ],
      "name": "transferOwnership",
      "outputs": [],
      "stateMutability": "nonpayable",
      "type": "function"
    }
  ],
  "bytecode": "0x608060405234801561001057600080fd5b506040516123e33803806123e38339818101604052810190610032919061034a565b33600073ffffffffffffffffffffffffffffffffffffffff168173ffffffffffffffffffffffffffffffffffffffff16036100a55760006040517f1e4fbdf700000000000000000000000000000000000000000000000000000000815260040161009c9190610399565b60405180910390fd5b6100b48161022360201b60201c565b5060018081905550600073ffffffffffffffffffffffffffffffffffffffff168273ffffffffffffffffffffffffffffffffffffffff160361012b576040517f08c379a000000000000000000000000000000000000000000000000000000000815260040161012290610411565b60405180910390fd5b600073ffffffffffffffffffffffffffffffffffffffff168173ffffffffffffffffffffffffffffffffffffffff160361019a576040517f08c379a00000000000000000000000000000000000000000000000000000000081526004016101919061047d565b60405180910390fd5b81600360006101000a81548173ffffffffffffffffffffffffffffffffffffffff021916908373ffffffffffffffffffffffffffffffffffffffff16021790555080600460006101000a81548173ffffffffffffffffffffffffffffffffffffffff021916908373ffffffffffffffffffffffffffffffffffffffff160217905550505061049d565b60008060009054906101000a900473ffffffffffffffffffffffffffffffffffffffff169050816000806101000a81548173ffffffffffffffffffffffffffffffffffffffff021916908373ffffffffffffffffffffffffffffffffffffffff1602179055508173ffffffffffffffffffffffffffffffffffffffff168173ffffffffffffffffffffffffffffffffffffffff167f8be0079c531659141344cd1fd0a4f28419497f9722a3daafe3b4186f6b6457e060405160405180910390a35050565b600080fd5b600073ffffffffffffffffffffffffffffffffffffffff82169050919050565b6000610317826102ec565b9050919050565b6103278161030c565b811461033257600080fd5b50565b6000815190506103448161031e565b92915050565b60008060408385031215610361576103606102e7565b5b600061036f85828601610335565b925050602061038085828601610335565b9150509250929050565b6103938161030c565b82525050565b60006020820190506103ae600083018461038a565b92915050565b600082825260208201905092915050565b7f496e76616c69642047616d65546f6b656e206164647265737300000000000000600082015250565b60006103fb6019836103b4565b9150610406826103c5565b602082019050919050565b6000602082019050818103600083015261042a816103ee565b9050919050565b7f496e76616c6964206261636b656e64206f70657261746f722061646472657373600082015250565b60006104676020836103b4565b915061047282610431565b602082019050919050565b600060208201905081810360008301526104968161045a565b9050919050565b611f37806104ac6000396000f3fe608060405234801561001057600080fd5b50600436106100a95760003560e01c80638da5cb5b116100715780638da5cb5b1461012a5780639fe9ada314610148578063c0d64a871461017d578063c3dfdae614610199578063eaf7ac9f146101b7578063f2fde38b146101d5576100a9565b8063270ab7f5146100ae5780633acb3700146100ca578063715018a6146100e65780637249fbb6146100f057806382770e7e1461010c575b600080fd5b6100c860048036038101906100c391906114bf565b6101f1565b005b6100e460048036038101906100df9190611535565b6105fd565b005b6100ee6109f8565b005b61010a6004803603810190610105919061159c565b610a0c565b005b610114610cef565b60405161012191906115d8565b60405180910390f35b610132610d15565b60405161013f91906115d8565b60405180910390f35b610162600480360381019061015d919061159c565b610d3e565b60405161017496959493929190611679565b60405180910390f35b6101976004803603810190610192919061159c565b610de7565b005b6101a16111d1565b6040516101ae9190611739565b60405180910390f35b6101bf6111f7565b6040516101cc9190611754565b60405180910390f35b6101ef60048036038101906101ea919061176f565b6111fe565b005b6101f9611284565b600460009054906101000a900473ffffffffffffffffffffffffffffffffffffffff1673ffffffffffffffffffffffffffffffffffffffff163373ffffffffffffffffffffffffffffffffffffffff1614610289576040517f08c379a00000000000000000000000000000000000000000000000000000000081526004016102809061181f565b60405180910390fd5b6000600260008481526020019081526020016000209050600160028111156102b4576102b3611602565b5b8160030160009054906101000a900460ff1660028111156102d8576102d7611602565b5b14610318576040517f08c379a000000000000000000000000000000000000000000000000000000000815260040161030f9061188b565b60405180910390fd5b8060000160009054906101000a900473ffffffffffffffffffffffffffffffffffffffff1673ffffffffffffffffffffffffffffffffffffffff168273ffffffffffffffffffffffffffffffffffffffff1614806103c557508060010160009054906101000a900473ffffffffffffffffffffffffffffffffffffffff1673ffffffffffffffffffffffffffffffffffffffff168273ffffffffffffffffffffffffffffffffffffffff16145b610404576040517f08c379a00000000000000000000000000000000000000000000000000000000081526004016103fb9061191d565b60405180910390fd5b600073ffffffffffffffffffffffffffffffffffffffff168160050160009054906101000a900473ffffffffffffffffffffffffffffffffffffffff1673ffffffffffffffffffffffffffffffffffffffff1614610497576040517f08c379a000000000000000000000000000000000000000000000000000000000815260040161048e90611989565b60405180910390fd5b818160050160006101000a81548173ffffffffffffffffffffffffffffffffffffffff021916908373ffffffffffffffffffffffffffffffffffffffff160217905550600360009054906101000a900473ffffffffffffffffffffffffffffffffffffffff1673ffffffffffffffffffffffffffffffffffffffff1663a9059cbb836002846002015461052a91906119d8565b6040518363ffffffff1660e01b8152600401610547929190611a1a565b6020604051808303816000875af1158015610566573d6000803e3d6000fd5b505050506040513d601f19601f8201168201806040525081019061058a9190611a7b565b5060028160030160006101000a81548160ff021916908360028111156105b3576105b2611602565b5b0217905550827fa569bfd2e3bd9bd14cfdabad61aef5f3d5b18b0fcdf78805e65349dda2210fbc836040516105e891906115d8565b60405180910390a2506105f96112ca565b5050565b6106056112d3565b600073ffffffffffffffffffffffffffffffffffffffff166002600086815260200190815260200160002060000160009054906101000a900473ffffffffffffffffffffffffffffffffffffffff1673ffffffffffffffffffffffffffffffffffffffff16146106aa576040517f08c379a00000000000000000000000000000000000000000000000000000000081526004016106a190611af4565b60405180910390fd5b600073ffffffffffffffffffffffffffffffffffffffff168373ffffffffffffffffffffffffffffffffffffffff16141580156107145750600073ffffffffffffffffffffffffffffffffffffffff168273ffffffffffffffffffffffffffffffffffffffff1614155b610753576040517f08c379a000000000000000000000000000000000000000000000000000000000815260040161074a90611b60565b60405180910390fd5b8173ffffffffffffffffffffffffffffffffffffffff168373ffffffffffffffffffffffffffffffffffffffff16036107c1576040517f08c379a00000000000000000000000000000000000000000000000000000000081526004016107b890611bcc565b60405180910390fd5b60008111610804576040517f08c379a00000000000000000000000000000000000000000000000000000000081526004016107fb90611c5e565b60405180910390fd5b6040518060c001604052808473ffffffffffffffffffffffffffffffffffffffff1681526020018373ffffffffffffffffffffffffffffffffffffffff1681526020018281526020016000600281111561086157610860611602565b5b8152602001428152602001600073ffffffffffffffffffffffffffffffffffffffff168152506002600086815260200190815260200160002060008201518160000160006101000a81548173ffffffffffffffffffffffffffffffffffffffff021916908373ffffffffffffffffffffffffffffffffffffffff16021790555060208201518160010160006101000a81548173ffffffffffffffffffffffffffffffffffffffff021916908373ffffffffffffffffffffffffffffffffffffffff1602179055506040820151816002015560608201518160030160006101000a81548160ff0219169083600281111561095d5761095c611602565b5b02179055506080820151816004015560a08201518160050160006101000a81548173ffffffffffffffffffffffffffffffffffffffff021916908373ffffffffffffffffffffffffffffffffffffffff160217905550905050837f4becde1621d018f3c4630cadb81bbd72061cd951ebaab5e8b10d5b2fecfa49ce8484846040516109ea93929190611c7e565b60405180910390a250505050565b610a006112d3565b610a0a600061135a565b565b610a14611284565b600060026000838152602001908152602001600020905060016002811115610a3f57610a3e611602565b5b8160030160009054906101000a900460ff166002811115610a6357610a62611602565b5b14610aa3576040517f08c379a0000000000000000000000000000000000000000000000000000000008152600401610a9a9061188b565b60405180910390fd5b620151808160040154610ab69190611cb5565b4211610af7576040517f08c379a0000000000000000000000000000000000000000000000000000000008152600401610aee90611d35565b60405180910390fd5b600360009054906101000a900473ffffffffffffffffffffffffffffffffffffffff1673ffffffffffffffffffffffffffffffffffffffff1663a9059cbb8260000160009054906101000a900473ffffffffffffffffffffffffffffffffffffffff1683600201546040518363ffffffff1660e01b8152600401610b7c929190611a1a565b6020604051808303816000875af1158015610b9b573d6000803e3d6000fd5b505050506040513d601f19601f82011682018060405250810190610bbf9190611a7b565b50600360009054906101000a900473ffffffffffffffffffffffffffffffffffffffff1673ffffffffffffffffffffffffffffffffffffffff1663a9059cbb8260010160009054906101000a900473ffffffffffffffffffffffffffffffffffffffff1683600201546040518363ffffffff1660e01b8152600401610c45929190611a1a565b6020604051808303816000875af1158015610c64573d6000803e3d6000fd5b505050506040513d601f19601f82011682018060405250810190610c889190611a7b565b5060028160030160006101000a81548160ff02191690836002811115610cb157610cb0611602565b5b0217905550817ffe509803c09416b28ff3d8f690c8b0c61462a892c46d5430c8fb20abe472daf060405160405180910390a250610cec6112ca565b50565b600460009054906101000a900473ffffffffffffffffffffffffffffffffffffffff1681565b60008060009054906101000a900473ffffffffffffffffffffffffffffffffffffffff16905090565b60026020528060005260406000206000915090508060000160009054906101000a900473ffffffffffffffffffffffffffffffffffffffff16908060010160009054906101000a900473ffffffffffffffffffffffffffffffffffffffff16908060020154908060030160009054906101000a900460ff16908060040154908060050160009054906101000a900473ffffffffffffffffffffffffffffffffffffffff16905086565b610def611284565b6000600260008381526020019081526020016000209050600073ffffffffffffffffffffffffffffffffffffffff168160000160009054906101000a900473ffffffffffffffffffffffffffffffffffffffff1673ffffffffffffffffffffffffffffffffffffffff1603610e99576040517f08c379a0000000000000000000000000000000000000000000000000000000008152600401610e9090611da1565b60405180910390fd5b60006002811115610ead57610eac611602565b5b8160030160009054906101000a900460ff166002811115610ed157610ed0611602565b5b14610f11576040517f08c379a0000000000000000000000000000000000000000000000000000000008152600401610f0890611e33565b60405180910390fd5b8060000160009054906101000a900473ffffffffffffffffffffffffffffffffffffffff1673ffffffffffffffffffffffffffffffffffffffff163373ffffffffffffffffffffffffffffffffffffffff161480610fbe57508060010160009054906101000a900473ffffffffffffffffffffffffffffffffffffffff1673ffffffffffffffffffffffffffffffffffffffff163373ffffffffffffffffffffffffffffffffffffffff16145b610ffd576040517f08c379a0000000000000000000000000000000000000000000000000000000008152600401610ff490611e9f565b60405180910390fd5b600360009054906101000a900473ffffffffffffffffffffffffffffffffffffffff1673ffffffffffffffffffffffffffffffffffffffff166323b872dd333084600201546040518463ffffffff1660e01b815260040161106093929190611c7e565b6020604051808303816000875af115801561107f573d6000803e3d6000fd5b505050506040513d601f19601f820116820180604052508101906110a39190611a7b565b50600281600201546110b591906119d8565b600360009054906101000a900473ffffffffffffffffffffffffffffffffffffffff1673ffffffffffffffffffffffffffffffffffffffff166370a08231306040518263ffffffff1660e01b815260040161111091906115d8565b602060405180830381865afa15801561112d573d6000803e3d6000fd5b505050506040513d601f19601f820116820180604052508101906111519190611ed4565b0361118d5760018160030160006101000a81548160ff0219169083600281111561117e5761117d611602565b5b02179055504281600401819055505b817f33569fabfdaac29b9fcc05f7e8d37b389e8b2ba4379fcefefb7a8883d860b45a336040516111bd91906115d8565b60405180910390a2506111ce6112ca565b50565b600360009054906101000a900473ffffffffffffffffffffffffffffffffffffffff1681565b6201518081565b6112066112d3565b600073ffffffffffffffffffffffffffffffffffffffff168173ffffffffffffffffffffffffffffffffffffffff16036112785760006040517f1e4fbdf700000000000000000000000000000000000000000000000000000000815260040161126f91906115d8565b60405180910390fd5b6112818161135a565b50565b6002600154036112c0576040517f3ee5aeb500000000000000000000000000000000000000000000000000000000815260040160405180910390fd5b6002600181905550565b60018081905550565b6112db61141e565b73ffffffffffffffffffffffffffffffffffffffff166112f9610d15565b73ffffffffffffffffffffffffffffffffffffffff16146113585761131c61141e565b6040517f118cdaa700000000000000000000000000000000000000000000000000000000815260040161134f91906115d8565b60405180910390fd5b565b60008060009054906101000a900473ffffffffffffffffffffffffffffffffffffffff169050816000806101000a81548173ffffffffffffffffffffffffffffffffffffffff021916908373ffffffffffffffffffffffffffffffffffffffff1602179055508173ffffffffffffffffffffffffffffffffffffffff168173ffffffffffffffffffffffffffffffffffffffff167f8be0079c531659141344cd1fd0a4f28419497f9722a3daafe3b4186f6b6457e060405160405180910390a35050565b600033905090565b600080fd5b6000819050919050565b61143e8161142b565b811461144957600080fd5b50565b60008135905061145b81611435565b92915050565b600073ffffffffffffffffffffffffffffffffffffffff82169050919050565b600061148c82611461565b9050919050565b61149c81611481565b81146114a757600080fd5b50565b6000813590506114b981611493565b92915050565b600080604083850312156114d6576114d5611426565b5b60006114e48582860161144c565b92505060206114f5858286016114aa565b9150509250929050565b6000819050919050565b611512816114ff565b811461151d57600080fd5b50565b60008135905061152f81611509565b92915050565b6000806000806080858703121561154f5761154e611426565b5b600061155d8782880161144c565b945050602061156e878288016114aa565b935050604061157f878288016114aa565b925050606061159087828801611520565b91505092959194509250565b6000602082840312156115b2576115b1611426565b5b60006115c08482850161144c565b91505092915050565b6115d281611481565b82525050565b60006020820190506115ed60008301846115c9565b92915050565b6115fc816114ff565b82525050565b7f4e487b7100000000000000000000000000000000000000000000000000000000600052602160045260246000fd5b6003811061164257611641611602565b5b50565b600081905061165382611631565b919050565b600061166382611645565b9050919050565b61167381611658565b82525050565b600060c08201905061168e60008301896115c9565b61169b60208301886115c9565b6116a860408301876115f3565b6116b5606083018661166a565b6116c260808301856115f3565b6116cf60a08301846115c9565b979650505050505050565b6000819050919050565b60006116ff6116fa6116f584611461565b6116da565b611461565b9050919050565b6000611711826116e4565b9050919050565b600061172382611706565b9050919050565b61173381611718565b82525050565b600060208201905061174e600083018461172a565b92915050565b600060208201905061176960008301846115f3565b92915050565b60006020828403121561178557611784611426565b5b6000611793848285016114aa565b91505092915050565b600082825260208201905092915050565b7f4f6e6c7920746865206261636b656e64206f70657261746f722063616e20636f60008201527f6d6d697420726573756c74730000000000000000000000000000000000000000602082015250565b6000611809602c8361179c565b9150611814826117ad565b604082019050919050565b60006020820190508181036000830152611838816117fc565b9050919050565b7f4d61746368206973206e6f7420696e20746865207374616b6564207374617465600082015250565b600061187560208361179c565b91506118808261183f565b602082019050919050565b600060208201905081810360008301526118a481611868565b9050919050565b7f57696e6e6572206d757374206265206f6e65206f662074686520706c6179657260008201527f7300000000000000000000000000000000000000000000000000000000000000602082015250565b600061190760218361179c565b9150611912826118ab565b604082019050919050565b60006020820190508181036000830152611936816118fa565b9050919050565b7f526573756c7420616c726561647920636f6d6d69747465640000000000000000600082015250565b600061197360188361179c565b915061197e8261193d565b602082019050919050565b600060208201905081810360008301526119a281611966565b9050919050565b7f4e487b7100000000000000000000000000000000000000000000000000000000600052601160045260246000fd5b60006119e3826114ff565b91506119ee836114ff565b92508282026119fc816114ff565b91508282048414831517611a1357611a126119a9565b5b5092915050565b6000604082019050611a2f60008301856115c9565b611a3c60208301846115f3565b9392505050565b60008115159050919050565b611a5881611a43565b8114611a6357600080fd5b50565b600081519050611a7581611a4f565b92915050565b600060208284031215611a9157611a90611426565b5b6000611a9f84828501611a66565b91505092915050565b7f4d6174636820616c726561647920657869737473000000000000000000000000600082015250565b6000611ade60148361179c565b9150611ae982611aa8565b602082019050919050565b60006020820190508181036000830152611b0d81611ad1565b9050919050565b7f496e76616c696420706c61796572206164647265737365730000000000000000600082015250565b6000611b4a60188361179c565b9150611b5582611b14565b602082019050919050565b60006020820190508181036000830152611b7981611b3d565b9050919050565b7f506c61796572732063616e6e6f74206265207468652073616d65000000000000600082015250565b6000611bb6601a8361179c565b9150611bc182611b80565b602082019050919050565b60006020820190508181036000830152611be581611ba9565b9050919050565b7f5374616b6520616d6f756e74206d75737420626520677265617465722074686160008201527f6e207a65726f0000000000000000000000000000000000000000000000000000602082015250565b6000611c4860268361179c565b9150611c5382611bec565b604082019050919050565b60006020820190508181036000830152611c7781611c3b565b9050919050565b6000606082019050611c9360008301866115c9565b611ca060208301856115c9565b611cad60408301846115f3565b949350505050565b6000611cc0826114ff565b9150611ccb836114ff565b9250828201905080821115611ce357611ce26119a9565b5b92915050565b7f54696d656f757420706572696f6420686173206e6f7420706173736564000000600082015250565b6000611d1f601d8361179c565b9150611d2a82611ce9565b602082019050919050565b60006020820190508181036000830152611d4e81611d12565b9050919050565b7f4d6174636820646f6573206e6f74206578697374000000000000000000000000600082015250565b6000611d8b60148361179c565b9150611d9682611d55565b602082019050919050565b60006020820190508181036000830152611dba81611d7e565b9050919050565b7f4d61746368206973206e6f7420696e207468652063726561746564207374617460008201527f6500000000000000000000000000000000000000000000000000000000000000602082015250565b6000611e1d60218361179c565b9150611e2882611dc1565b604082019050919050565b60006020820190508181036000830152611e4c81611e10565b9050919050565b7f4f6e6c7920706c61796572732063616e207374616b6500000000000000000000600082015250565b6000611e8960168361179c565b9150611e9482611e53565b602082019050919050565b60006020820190508181036000830152611eb881611e7c565b9050919050565b600081519050611ece81611509565b92915050565b600060208284031215611eea57611ee9611426565b5b6000611ef884828501611ebf565b9150509291505056fea2646970667358221220e7094ffda90dfdfc07d64e0798c66b469d77168e35f9c2c0a4e5799c79da0f3864736f6c634300081c0033",
  "linkReferences": {},
  "deployedLinkReferences": {}
}